:020000040800F2
:10000000F80400209D010008A5010008A7010008D0
:10001000A9010008AB010008AD01000800000000C4
:10002000000000000000000000000000AF01000818
:10003000B101000800000000B301000839190008F0
:10004000B7010008B7010008B7010008B7010008B0
:10005000B7010008B7010008B7010008B7010008A0
:10006000B7010008B7010008B7010008B701000890
:10007000B7010008B7010008B7010008B701000880
:10008000B7010008B7010008B7010008B701000870
:10009000B7010008B7010008B7010008B701000860
:1000A000B7010008B7010008351A0008291A00082E
:1000B000B7010008B7010008B7010008B701000840
:1000C000B7010008B7010008B7010008B701000830
:1000D000B7010008B7010008B7010008B701000820
:1000E000B7010008B7010008B7010008B701000810
:1000F000B7010008B7010008B7010008B701000800
:10010000B7010008B7010008B7010008B7010008EF
:10011000B7010008B7010008B7010008B7010008DF
:10012000A9030008B7010008B7010008B7010008DB
:10013000B7010008B7010008B7010008B7010008BF
:10014000B7010008B7010008B7010008B7010008AF
:10015000B7010008B7010008B7010008B70100089F
:10016000B7010008B7010008B7010008B70100088F
:10017000B7010008B7010008B7010008000000003F
:10018000B7010008B7010008DFF80CD000F068F8EC
:1001900000480047A51C0008F804002006488047D6
:1001A00006480047FEE7FEE7FEE7FEE7FEE7FEE75C
:1001B000FEE7FEE7FEE7FEE7D51900088901000823
:1001C0002DE9F05F0546002092469B46884606468C
:1001D000814640241BE0284641464746224600F01F
:1001E0002FF853465A46C01A914110D3114618466B
:1001F000224600F016F82D1A67EB01084F462246FA
:100200000120002100F00DF817EB00094E41201EDF
:10021000A4F10104DFDC484631462A464346BDE8E6
:10022000F09F202A04DB203A00FA02F100207047F8
:100230009140C2F1200320FA03F319439040704724
:10024000202A04DB203A21FA02F00021704721FA2B
:1002500002F3D040C2F12002914008431946704792
:10026000064C074D06E0E06840F0010394E8070003
:1002700098471034AC42F6D3FFF78AFFE41C00081D
:10028000041D0008454910B54A6822F440324A600E
:100290004A6843681A434A6001684A6822F48072D7
:1002A0004A6001684A68036942EA03224A600168B9
:1002B0004A6822F040724A6001684A6883681A43BB
:1002C0004A6001688A6822F400628A6001688A686C
:1002D000C3681A438A60816A6FF07062D142016814
:1002E0008A6822F070628A6001688A680CD0836A2A
:1002F0001A438A6001688A6822F040528A60016865
:100300008A68C36A1A4301E022F040528A60016899
:100310008A6822F002028A6001688A68836942EA78
:1003200043028A60016A002901684A680FD042F4DA
:1003300000624A6001684A6822F460424A600168CB
:100340004A68174C436A04EB43331A4301E022F432
:1003500000624A600168CA6A22F47002CA620168D7
:10036000CA6A838B0F4C04EB03531A43CA620168B9
:100370008A6822F400728A6001688A68036B42EA24
:1003800043228A6001688A6822F480628A60016878
:100390008A68406942EA8020886010BD00230140DD
:1003A00000E0FFFF0000F0FF014800F037BA000056
:1003B0005800002001681823CAB2103AB2FBF3F2C9
:1003C000054B6FF30901032A9B5CC36500D9091D26
:1003D0008165084670470000CC1C000810B5014636
:1003E00000208B698A6A4FF0C07453B1B3F5005F87
:1003F00015D072B1012A0CD0022A0AD0032A09D1E1
:1004000004E01AB1012A06D0022A03D1C96AC9013F
:1004100000D5012010BDC96AA142FAD010BD002A42
:10042000F7D0012AF2D0022AF3D0032AF3D010BD6C
:1004300070B590F83C20694D012A19D0012280F84E
:100440003C200A6807230468092A13D9E6680A3A97
:1004500002EB420293409E43E6600A788B680A3AB8
:1004600002EB420293400268D4682343D36010E059
:10047000022070BD266902EB420293409E43266132
:100480000A788B6802EB42029340026814692343A6
:1004900013610268936B23F4401393630268936BB8
:1004A0000C8A4F4E06EB0454234393630A790B7C6A
:1004B000D21AD21C02EB82021F2393400268946B73
:1004C0009C4394630A790B7CD21AD21C02EB820300
:1004D0000A8892B29A4003689C6B22439A63CA6965
:1004E000AA420268936823F47023936002689368B9
:1004F0000CD0CC69234393600268936823F44013C3
:100500009360026893680C6A234301E023F440136C
:1005100093608A69002A0268536802D043F48063BA
:1005200001E023F4806353604A69002A026853683B
:1005300002D043F4805301E023F4805353604A68AF
:10054000012A16D0022A1FD0032A026827D0136A74
:100550006FF30B0313620268136ACC6823431362C0
:10056000214B04681F4A9C4227D10C68122C20D0D2
:1005700023E0026853696FF30B0353610268536908
:10058000CC6823435361EBE7026893696FF30B0375
:10059000936102689369CC6823439361E0E7D36970
:1005A0006FF30B03D3610268D369CC682343D36133
:1005B000D6E7546844F48004546004689C4208D12F
:1005C0000968102901D0112903D1516841F40001B3
:1005D0005160002180F83C10084670BD01000F00FA
:1005E0000000F0FF002301400020014078B5002406
:1005F000009490F83C20012A19D0012280F83C2078
:100600000A6807230568092A13D9EE680A3A02EB3B
:10061000420293409E43EE600B788A680A3B03EBEC
:1006200043039A400368DD682A43DA6010E0022041
:1006300078BD2E6902EB420293409E432E610B78F7
:100640008A6803EB43039A4003681D692A431A61D1
:100650004A681F23072A13D205686E6B521E02EBED
:10066000820293409E436E630B790A885B1E92B2AE
:1006700003EB83039A4003685D6B2A435A6327E0C8
:1006800005680D2A12D22E6BD21F02EB8202934014
:100690009E432E630B790A88DB1F92B203EB830320
:1006A0009A4003681D6B2A431A6311E0EE6A0D3A03
:1006B00002EB820293409E43EE620B790A880D3B67
:1006C00092B203EB83039A400368DD6A2A43DA623D
:1006D000164B0568144A9D4206D10D68122D03D1B0
:1006E000556845F48005556005689D4218D10B6832
:1006F000102B01D0112B13D1536843F40003536026
:10070000096810290CD10A490A4A0968B1FBF2F1BB
:1007100001EB8101490000E0491E00910029FBD155
:1007200080F83C40002078BD0023014000200140BB
:100730000C00002040420F0070B504004FF000058F
:1007400003D0206C002610B107E0012070BD666464
:1007500084F83C60204600F019F8206CC00610D4E4
:10076000206C20F4885040F0020020642046FFF7FF
:1007700089FD6664206C20F0020040F001002064D6
:1007800000E0012584F83C60284670BD70B506463F
:100790000068194986B088422BD1184800250168A5
:1007A00041F4807101600068694600F48070059032
:1007B000012000900320CDE90105114800F068F9FF
:1007C000114C1048C4E900050015A560C4E90350A8
:1007D000400060618000C4E906052562204665622C
:1007E00000F0ECF818B18C2108A001F04BFAB463CA
:1007F000A66306B070BD00000020014044380240EE
:100800000000024010640240580000202E2E2F539A
:1008100072632F6164632E63000000002DE9F843CA
:1008200004464FF00009CDF8009063484FF416518C
:10083000A56D0068B0FBF1F72E6894F85C100820F5
:1008400000FA01F131420FD021680A6852070BD536
:100850000A6822F004020A6094F85C108840A860DC
:10086000606D40F00100606594F85C104FF0010885
:1008700008FA01F0304208D021684969090604D518
:10088000A860606D40F00200606594F85C10042080
:100890008840304208D021680968890704D5A860DB
:1008A000606D40F00400606594F85C101020884092
:1008B000304218D021680968090714D5A86020685B
:1008C0000168490304D50068000308D5A16C07E05E
:1008D0000168C90503D4016821F008010160216C99
:1008E00009B12046884794F85C10202088403042A7
:1008F00031D021680968C9062DD5A86094F8350063
:1009000005282068016806D0490347D50068000320
:100910001DD4616C1CE021F0160101602068416962
:1009200021F080014161206C08B9A06C20B12068E1
:10093000016821F00801016094F85C103F208840B4
:10094000A86084F8349084F83580216D1FE0E16B55
:1009500009B120468847606D00282BD0606DC00724
:1009600014D0052084F835002068016821F00101C9
:1009700001600098401C0090B84203D820680068CD
:10098000C007F6D184F8349084F83580E16C0029F2
:1009900010D001B02046BDE8F04308470168C90502
:1009A000D5D4016821F01001016084F8349084F8F6
:1009B0003580CCE7BDE8F8830C0000202DE9F0413C
:1009C000044600F043F906465CB1002584F8345033
:1009D000022084F835002068016821F001010160DF
:1009E0000DE00120BDE8F08100F030F9801B052802
:1009F00005D920206065032084F83500F2E72068DF
:100A00000068C007F0D12268116820480140D4E98D
:100A100001031843D4E90336334318436369184389
:100A2000A3691843E3691843236A18430843616ABA
:100A3000042903D1D4E90B1319430843106020683B
:100A40004069666A20F0070130460E4301270428FA
:100A50000CD1A06A0643E06A40B12046FFF7BEFC15
:100A600020B14020606584F83570BAE7206846619F
:100A70002046FFF79FFC94F85C203F219140816065
:100A8000656584F835700020ACE700003F8010F009
:100A90002DE9F84FDFF87CB100224FF001084FF04C
:100AA000030A4FF00F090BF1040E00BF0B6808FAA0
:100AB00002F42340A3426ED14D68022D01D0122DC5
:100AC0000ED1D50800EB850CDCF820505607F70E48
:100AD00009FA07F6B5430E69BE402E43CCF82060F4
:100AE000066855000F790AFA05FC07F0030726EAA5
:100AF0000C06AF40374307604E68012E05D0022E2A
:100B000003D0112E01D0122E0ED18668CF6826EAAE
:100B10000C06AF40374387604668A6430C79C4F3A0
:100B20000014944034434460C6688C6826EA0C067E
:100B3000AC403443C4604C68E40065D5364C25684D
:100B400045F480452560246822F0030504F48044C0
:100B50000094324C2E19D6F8084895072F0F09FA41
:100B600007F5AC432E4DA84201D1002524E02D4DC0
:100B7000A84201D101251FE02B4DA84201D1022539
:100B80001AE02A4DA84201D1032515E0284DA842BC
:100B900002D1042510E037E0264DA84201D10525F9
:100BA0000AE0254DA84201D1062505E0234DA842C3
:100BB00001D1072500E00825BD402543C6F80858A7
:100BC000DBF800405D464E689C43F60300D51C43AD
:100BD0002C60DEF8004075464E689C43B60300D595
:100BE0001C432C600B4D08352C684E689C43F60264
:100BF00000D51C432C60074D0C352C684E689C4377
:100C0000B60200D51C432C60521C102AFFF44EAFD4
:100C1000BDE8F88F003C01404438024000300140FC
:100C2000000002400004024000080240000C0240A4
:100C3000001002400014024000180240001C024054
:100C40000AB1816170470904FBE700000148806830
:100C500070470000000000200248816802781144BB
:100C600081607047000000200B4810B5016841F416
:100C700000710160016841F480610160016841F424
:100C800080710160032000F097F8002000F006F862
:100C900000F024F8002010BD003C024070B50D4D5E
:100CA00004464FF47A712878B1FBF0F00A490968DC
:100CB000B1FBF0F000F0FDFA48B9102C07D2002289
:100CC0002146501E00F058F800206C6070BD0120D5
:100CD00070BD0000000000200C0000201F4808B577
:100CE000016841F480410160006800F48040009098
:100CF0001A48001F016841F080510160006800F04F
:100D000080500090032000F057F8002211466FF049
:100D10000B0000F031F8002211466FF00A0000F0DD
:100D20002BF8002211466FF0090000F025F8002290
:100D30001146501F00F020F800221146101F00F04D
:100D40001BF800221146901E00F016F80022BDE8A4
:100D500008401146501E00F00FB800004438024011
:100D600000F01F02012191404009800000F1E020C5
:100D7000C0F8001170470000F0B40E4B1B680C4621
:100D8000C3F30223C3F10705042D00D90425191D5F
:100D9000072901D2002300E0DB1E012606FA05F137
:100DA000491E214099409E40761E16403143F0BCBA
:100DB00000F0B2BD0CED00E0064900F00702086843
:100DC0004FF6FF03184040EA0220034A1043086030
:100DD000704700000CED00E00000FA052DE9F04737
:100DE0000E46050065D0DFF81481D8F80000F7B290
:100DF00000F00F00B04207D288F80070D8F8000069
:100E000000F00F00B04254D128683D4C810712D544
:100E1000400703D5206840F4E050206028780007A0
:100E200003D5206840F4604020602068A96820F065
:100E3000F000084320602878C0072DD0304968684A
:100E40000839012812D0022813D0032811D00968CC
:100E5000890700292DDA216821F00301014321606F
:100E6000FFF7F4FE814641F2883A0EE009688903F3
:100E7000EFE709688901ECE7FFF7E8FEA0EB09015D
:100E8000514502D90320BDE8F0872068696800F069
:100E90000C00B0EB810FEFD1D8F80010404601F004
:100EA0000F01B14207D90770006800F00F00B0428F
:100EB00001D00120E7E72878400705D52068E968D8
:100EC00020F4E050084320602878000706D5206809
:100ED000296920F4604040EAC100206000F01CF85D
:100EE0002168084AC1F30311515CC84006490860F3
:100EF0000020FFF7D3FE0020C5E70000003C0240C1
:100F000008380240D41C00080C000020014800688A
:100F1000704700000C000020154810B5006810F064
:100F20000C02144813D01449042A0FD0082A0ED1F9
:100F30000F4C241F2268236802F03F025B0207D592
:100F40002068C0F38810A0FB010106E0084610BD30
:100F50002168C1F38811A1FB00010023FFF730F9DC
:100F60002168C1F30141491C4900B0FBF1F010BDFB
:100F7000083802400024F40040787D012DE9F84F44
:100F8000050076D02878DFF8F8B2BE4CC00749D00B
:100F9000DBF800105846C1F38101012908D0006830
:100FA000C0F3810002280AD1201D0068400206D546
:100FB0002068800336D568680028E2D032E068688F
:100FC000B0F5803F10D0B0F5A02F206810D020F4ED
:100FD00080302060206820F4802020606868A0B104
:100FE000FFF734FE06460CE0206840F48030F4E75A
:100FF00040F480202060F7E7FFF728FE801B64287C
:1010000073D820688003F7D50CE0FFF71FFE064673
:1010100005E000BFFFF71AFE801B6428F0D82068A7
:101020008003F7D42878DFF8608280074FF000094A
:101030003ED5DBF80010584611F00C0F09D00068BF
:10104000C0F3810002280BD18D48001F00684002C8
:1010500006D42068800715D5E868012809D111E079
:10106000E868B8B10120C8F80000FFF7EFFD0646B8
:1010700005E002E1FFF7EAFD801B0228C0D82068E6
:101080008007F7D52068296920F0F80040EAC10000
:1010900020600DE0C8F80090FFF7D8FD064604E098
:1010A000FFF7D4FD801B02281FD820688007F7D4E3
:1010B0002878000722D5724E744869696C3671B180
:1010C00001210160FFF7C2FD074604E0FFF7BEFD06
:1010D000C01B022809D830688007F7D50EE0C0F899
:1010E0000090FFF7B3FD074605E083E0FFF7AEFD94
:1010F000C01B02287ED830688007F7D428784007C4
:1011000068D5DFF87CA100270AF1380ADAF8000078
:10111000C0000BD4DAF8001041F08051CAF800107A
:10112000DAF80000012700F080500090584E306837
:10113000C00510D4306840F480703060FFF786FD41
:10114000009005E0FFF782FD0099401A022851D86F
:101150003068C005F6D54A4EA868683601280FD019
:101160000528306810D020F001003060306820F091
:1011700004003060A868B8B1FFF768FD00900FE088
:10118000306840F00100F4E740F004003060F7E719
:10119000FFF75CFD0099411A41F28830814264D822
:1011A00030688007F4D50EE0FFF750FD009007E0AF
:1011B000FFF74CFD0099411A41F28830814254D822
:1011C00030688007F4D42FB1DAF8001021F0805194
:1011D000CAF80010A869C0B3DBF80010C1F38101A0
:1011E00002294AD00228484607D0C8F86000FFF715
:1011F0002DFD00E039E005463AE04746C8F86000BA
:10120000FFF724FD064604E0FFF720FD801B0228BF
:101210002BD820688001F7D4D5E907010843A96AD3
:101220001C4A490802EB01416A6A41EA82110843FB
:1012300095F82C1040EA01611148001F016001205F
:101240003866FFF703FD054605E014E0FFF7FEFCF6
:10125000401B022809D820688001F7D50BE000BFA9
:10126000FFF7F4FC401B022802D90320BDE8F88FE9
:1012700020688001F4D40020F8E70120F6E70000A0
:10128000083802400038024000004742800E4742C2
:10129000007000400000FFFF4FF0E02104280869C3
:1012A00003D020F004000861704740F00400FAE722
:1012B000704710B5401EB0F1807F01D3012010BDF2
:1012C0004FF0E02460610F21601700F025FB002043
:1012D000A06107202061002010BD10B5FFF7E8FFD6
:1012E00010BD7047704710B590F83820012A25D0FE
:1012F000012280F83820CA688C6822F440722243A8
:101300004C6822F4806222430C6822F4006222437B
:101310000C6922F4805222434C6922F40052224389
:101320008C6922F48042224322F4004102680023A7
:101330002143516480F83830002010BD022010BDD8
:1013400030B590F83820012A20D0012280F83820CA
:10135000022380F8393003685C6824F070045C6014
:1013600003685C680D682C435C6003689C6824F02B
:1013700080049C6003689C6849680C439C6080F80A
:101380003920002180F83810084630BD022030BDD9
:10139000704770B50446006801694FF00005C94305
:1013A000890715D4C168C943890711D4E91E0161B1
:1013B00001202076206880698007204602D0FFF750
:1013C000E7FF04E000F0B2F8204600F069F9257666
:1013D00020680169C943490717D4C168C94349074F
:1013E00013D46FF004010161022020762068806927
:1013F00010F4407F204602D0FFF7CAFF04E000F05F
:1014000095F8204600F04CF9257620680169C9431B
:10141000090716D4C168C943090712D46FF008013F
:101420000161042020762068C0698007204602D030
:10143000FFF7AEFF04E000F079F8204600F030F945
:10144000257620680169C943C90617D4C168C94314
:10145000C90613D46FF010010161082020762068BE
:10146000C06910F4407F204602D0FFF791FF04E0EE
:1014700000F05CF8204600F013F925762068016939
:10148000C943C90708D1C168C943C90704D1891E26
:101490000161204600F022F920680169C94309066C
:1014A00009D4C168C943090605D46FF08001016100
:1014B0002046FFF716FF20680169C943490609D491
:1014C000C168C943490605D46FF040010161204657
:1014D00000F005F920680169C94389060BD4C16889
:1014E000C943890607D46FF0200101612046BDE899
:1014F0007040FFF7F7BE70BD00B50068094985B0C0
:1015000088420CD1801500900220019000200290AA
:1015100003900120049069460348FFF7B9FA05B02B
:1015200000BD00000000014000000240704770B59F
:10153000044690F838000D4601280DD0012684F8A5
:101540003860022084F8390042B1042A18D0082AF1
:101550002AD00C2A4DD139E0022070BD206800F05D
:10156000DBFA2068816941F00801816120688169A6
:1015700021F004018161206881692A69114311E029
:10158000206800F0F5FA2068816941F4006181610A
:101590002068816921F480618161206881692A69FC
:1015A00041EA0221816124E0206800F013FB2068F9
:1015B000C16941F00801C1612068C16921F00401DD
:1015C000C1612068C1692A69114311E0206800F0F7
:1015D00031FB2068C16941F40061C1612068C169C3
:1015E00021F48061C1612068C1692A6941EA022150
:1015F000C16184F83960002084F8380070BD10B5EE
:10160000040003D094F8390010B107E0012010BDA8
:10161000002084F83800204600F00CF8022084F8FE
:101620003900211D206800F00BFA012084F83900F0
:10163000002010BD00B50068164987B0884226D149
:1016400015480021026842F001020260006800F0C3
:10165000010005904FF4007000900220CDE90101D7
:101660000120CDE9031069460C48FFF711FA00226A
:1016700011461A20FFF780FB1A20FFF771FB0022AA
:1016800011461B20FFF778FB1B20FFF769FB07B013
:1016900000BD00000000014044380240000002404C
:1016A0007047000010B504460068012200F028FAD7
:1016B00008492068884202D00749884203D1416C1A
:1016C00041F4004141642068016841F0010101607A
:1016D000002010BD00000140000401407047704729
:1016E00030B51F488DB01D490024C0E90014846046
:1016F000046184614FF080510462C0E90A41012510
:10170000C56105634561C460FFF716F818B14B2148
:1017100014A000F0B7FACDE9094509A910480B94C7
:10172000FEF764FF18B155210EA000F0ABFACDE929
:10173000004510480294CDE90704CDE9045406940D
:10174000694607480394FEF773FE002803D065211D
:1017500004A000F097FA0DB030BD00000020014059
:10176000100000202E2E2F5372632F6164632E63AE
:101770000000000001000F00094808B5016841F4AD
:10178000800101600068002200F480000090114692
:101790003820FFF7F1FABDE808403820FFF7E0BA3B
:1017A000303802402DE9F0472B4886B0002401680C
:1017B00041F001010160016801F00101059101683A
:1017C00041F010010160016801F01001059101680C
:1017D00041F002010160016801F002010591016818
:1017E00041F0080101600068DFF8708000F0080037
:1017F0004FF42A460590002231464046FFF720FA72
:10180000DFF85C904FF42847002239464846FFF73E
:1018100017FADFF850A0002231465046FFF710FAC1
:1018200001250096CDE90154694640460394FFF72F
:101830002FF90097CDE90154694648460394FFF714
:1018400027F90096CDE90154694650460394FFF705
:101850001FF906B0BDE8F0873038024000100240A2
:1018600000040240000C024010B5264890B0244904
:10187000016040F2E7310024C0E90114491CC16055
:101880004FF40071C0E90414FFF7B9FE18B142210A
:101890001DA000F0F7F90E940EA91A480F94FFF757
:1018A0004FFD18B1492118A000F0ECF96020CDE9F6
:1018B000000402940394049405940022694611489C
:1018C0000694FFF734FE18B155210FA000F0DAF9A5
:1018D0000794089409944FF400500A94CDE90B4002
:1018E00007A908480D94FFF7FEFC18B1612106A076
:1018F00000F0C8F90348FFF7FFFD10B010BD00006D
:1019000000000140B80000202E2E2F5372632F7468
:10191000696D2E63000000000907090E002806DA31
:1019200000F00F0000F1E02080F8141D704700F176
:10193000E02080F80014704710B5FFF78DF9BDE87E
:101940001040FFF7CABC000010B5204892B0002438
:10195000016841F080510160006800F080501190F2
:101960001B48016841F4804101600068069400F45E
:1019700080401190022000900120039010200490DC
:101980006846FFF7FBFA00B1FEE70F20CDE90C0433
:101990004FF4C0500E94CDE90F4000210CA8FFF782
:1019A0001DFA00B1FEE7FFF7B1FA4FF47A71B0FB10
:1019B000F1F0FFF77EFC0420FFF76EFC00221146D9
:1019C000501EFFF7D9F912B010BD00004038024098
:1019D000007000401048016841F4700101600F4838
:1019E000016841F0010101600C4A002108321160D8
:1019F00002680B4B1A400260031D0A4A1A60026813
:101A000022F48022026005480C3001600249580629
:101A1000803908607047000088ED00E0003802401F
:101A2000FFFFF6FE103000240148FFF7B2BC0000B3
:101A3000B80000200148FFF7ACBC0000B80000204F
:101A4000F0B50268234B244D244E254F254C4FF012
:101A5000804C984209D0604507D0A84205D0B042DA
:101A600003D0B84201D0A04204D122F0700E4A68DF
:101A700042EA0E0298421BD0604519D0A84217D006
:101A8000B04215D0B84213D0A04211D0164DA84292
:101A90000ED0164DA8420BD0154DA84208D0154DBA
:101AA000A84205D0144DA84202D0144DA84203D13B
:101AB00022F44075CA682A4302608A68C2620A68D2
:101AC0008262984201D0A04201D1096901630121DB
:101AD0004161F0BD000001400004004000080040EA
:101AE000000C00400004014000400140004401405F
:101AF0000048014000180040001C00400020004049
:101B000010B50123046A8B409C430462036A8A4037
:101B10001343036210BD000030B5026A22F00102D7
:101B20000262026A436884690D6824F073042543E5
:101B300022F002048A6822430B4CA04202D00B4CD4
:101B4000A0420BD122F00804CA6823F44073224358
:101B50004C6922F004021C438B6923434360856176
:101B600049684163026230BD000001400004014049
:101B700030B5026A22F010020262026A4368846988
:101B80000D6824F4E64444EA05248D6822F020021E
:101B900042EA05120D4DA84202D00D4DA8420ED1C9
:101BA000CD6822F0800242EA05124D6923F44063B9
:101BB00043EA85038D6922F0400243EA85034360CE
:101BC000846149688163026230BD00000000014009
:101BD0000004014030B5026A22F480720262036A96
:101BE0004268C46923F4007324F073050C682C4325
:101BF0008D6843EA05230D4DA84202D00C4DA84242
:101C00000ED1CD6823F4006343EA05234D6922F425
:101C1000405242EA05128D6923F4806342EA0512BC
:101C20004260C4614968C163036230BD0000014085
:101C30000004014030B5026A22F480520262046A54
:101C40004268C3690D6823F4E64343EA05238D68BF
:101C500024F4005444EA0534084DA84202D0084D4B
:101C6000A84204D14D6922F4804242EA85124260C2
:101C7000C36149680164046230BD00000000014096
:101C800000040140FEE702E008C8121F08C1002A54
:101C9000FAD170477047002001E001C1121F002AED
:101CA000FBD17047FEF7E0FFFFF74EFEFFF77AFD2E
:101CB000FFF762FDFFF714FDFFF7D6FD0021024894
:101CC000FFF7F0FCFEE70000B80000200006101649
:101CD00000061016000000000000000001020304CE
:101CE00006070809041D000800000020100000007D
:101CF000861C0008141D000810000020E8040000E5
:101D0000961C000801000000100000000000000008
:041D10000024F400B7
:040000050800018965
:00000001FF
