:020000040800F2
:10000000080700209D010008A5010008A7010008BD
:10001000A9010008AB010008AD01000800000000C4
:10002000000000000000000000000000AF01000818
:10003000B101000800000000B3010008A91B00087E
:10004000B7010008B7010008B7010008B7010008B0
:10005000B7010008B7010008B7010008B7010008A0
:10006000B7010008B7010008B7010008B701000890
:10007000B7010008B7010008B7010008B701000880
:10008000B7010008B7010008B7010008B701000870
:10009000B7010008B7010008B7010008B701000860
:1000A000B7010008B7010008B7010008B701000850
:1000B000991C0008B7010008B7010008B701000843
:1000C000B7010008B7010008B7010008B701000830
:1000D000B7010008B7010008B7010008B701000820
:1000E000B7010008B7010008B7010008B701000810
:1000F000B7010008B7010008B7010008B701000800
:10010000B7010008B7010008B7010008B7010008EF
:10011000B7010008B7010008B7010008B7010008DF
:1001200041040008B7010008B7010008B701000842
:10013000B7010008B7010008B7010008B7010008BF
:10014000B7010008B7010008B7010008B7010008AF
:10015000B7010008B7010008B7010008B70100089F
:10016000B7010008B7010008B7010008B70100088F
:10017000B7010008B7010008B7010008000000003F
:10018000B7010008B7010008DFF80CD000F068F8EC
:1001900000480047ED1E0008080700200648804779
:1001A00006480047FEE7FEE7FEE7FEE7FEE7FEE75C
:1001B000FEE7FEE7FEE7FEE7451C000889010008B0
:1001C0002DE9F05F0546002092469B46884606468C
:1001D000814640241BE0284641464746224600F01F
:1001E0002FF853465A46C01A914110D3114618466B
:1001F000224600F016F82D1A67EB01084F462246FA
:100200000120002100F00DF817EB00094E41201EDF
:10021000A4F10104DFDC484631462A464346BDE8E6
:10022000F09F202A04DB203A00FA02F100207047F8
:100230009140C2F1200320FA03F319439040704724
:10024000202A04DB203A21FA02F00021704721FA2B
:1002500002F3D040C2F12002914008431946704792
:10026000064C074D06E0E06840F0010394E8070003
:1002700098471034AC42F6D3FFF78AFFDC1F000822
:10028000FC1F000810B50146806B026C12F0500F85
:1002900005D0806BC26CBDE8104008461047016C69
:1002A00041F40071016401688A6812F0405F17D15F
:1002B0008269AAB9CA6A12F4700F02D08A6852051C
:1002C0000ED44A6822F020024A60016C21F4807149
:1002D0000164016CC90403D4016C41F001010164A3
:1002E00000F08AFA10BD10B5806B40210164416CAA
:1002F00041F00401416400F081FA10BD10B5806B3B
:1003000000F07BFA10BD0000454910B54A6822F4A0
:1003100040324A604A6843681A434A6001684A6842
:1003200022F480724A6001684A68036942EA032243
:100330004A6001684A6822F040724A6001684A686F
:1003400083681A434A6001688A6822F400628A60FE
:1003500001688A68C3681A438A60816A6FF07062B4
:10036000D14201688A6822F070628A6001688A68F6
:100370000CD0836A1A438A6001688A6822F040526E
:100380008A6001688A68C36A1A4301E022F0405219
:100390008A6001688A6822F002028A6001688A68BD
:1003A000836942EA43028A60016A002901684A6857
:1003B0000FD042F400624A6001684A6822F4604249
:1003C0004A6001684A68174C436A04EB43331A4396
:1003D00001E022F400624A600168CA6A22F47002F5
:1003E000CA620168CA6A838B0F4C04EB03531A4339
:1003F000CA6201688A6822F400728A6001688A68A9
:10040000036B42EA43228A6001688A6822F48062B0
:100410008A6001688A68406942EA8020886010BD6D
:100420000023014000E0FFFF0000F0FF002104E096
:100430000222521C232AFCDB491C8142F8DB704754
:10044000014800F03DBB00006C000020016818234B
:10045000CAB2103AB2FBF3F2054B6FF30901032A5B
:100460009B5CC36500D9091D816508467047000083
:10047000C41F000810B5014600208B698A6A4FF03E
:10048000C07453B1B3F5005F15D072B1012A0CD01E
:10049000022A0AD0032A09D104E01AB1012A06D09F
:1004A000022A03D1C96AC90100D5012010BDC96A59
:1004B000A142FAD010BD002AF7D0012AF2D0022AB8
:1004C000F3D0032AF3D010BD30B50468256825F4B5
:1004D00080252560046863608368402B036803D02F
:1004E00099600068C26030BD9A600068C16030BD2C
:1004F00070B590F83C20694D012A19D0012280F88E
:100500003C200A6807230468092A13D9E6680A3AD6
:1005100002EB420293409E43E6600A788B680A3AF7
:1005200002EB420293400268D4682343D36010E098
:10053000022070BD266902EB420293409E43266171
:100540000A788B6802EB42029340026814692343E5
:1005500013610268936B23F4401393630268936BF7
:100560000C8A4F4E06EB0454234393630A790B7CA9
:10057000D21AD21C02EB82021F2393400268946BB2
:100580009C4394630A790B7CD21AD21C02EB82033F
:100590000A8892B29A4003689C6B22439A63CA69A4
:1005A000AA420268936823F47023936002689368F8
:1005B0000CD0CC69234393600268936823F4401302
:1005C0009360026893680C6A234301E023F44013AC
:1005D00093608A69002A0268536802D043F48063FA
:1005E00001E023F4806353604A69002A026853687B
:1005F00002D043F4805301E023F4805353604A68EF
:10060000012A16D0022A1FD0032A026827D0136AB3
:100610006FF30B0313620268136ACC6823431362FF
:10062000214B04681F4A9C4227D10C68122C20D011
:1006300023E0026853696FF30B0353610268536947
:10064000CC6823435361EBE7026893696FF30B03B4
:10065000936102689369CC6823439361E0E7D369AF
:100660006FF30B03D3610268D369CC682343D36172
:10067000D6E7546844F48004546004689C4208D16E
:100680000968102901D0112903D1516841F40001F2
:100690005160002180F83C10084670BD01000F0039
:1006A0000000F0FF002301400020014078B5002445
:1006B000009490F83C20012A19D0012280F83C20B7
:1006C0000A6807230568092A13D9EE680A3A02EB7B
:1006D000420293409E43EE600B788A680A3B03EB2C
:1006E00043039A400368DD682A43DA6010E0022081
:1006F00078BD2E6902EB420293409E432E610B7837
:100700008A6803EB43039A4003681D692A431A6110
:100710004A681F23072A13D205686E6B521E02EB2C
:10072000820293409E436E630B790A885B1E92B2ED
:1007300003EB83039A4003685D6B2A435A6327E007
:1007400005680D2A12D22E6BD21F02EB8202934053
:100750009E432E630B790A88DB1F92B203EB83035F
:100760009A4003681D6B2A431A6311E0EE6A0D3A42
:1007700002EB820293409E43EE620B790A880D3BA6
:1007800092B203EB83039A400368DD6A2A43DA627C
:10079000164B0568144A9D4206D10D68122D03D1EF
:1007A000556845F48005556005689D4218D10B6871
:1007B000102B01D0112B13D1536843F40003536065
:1007C000096810290CD10A490A4A0968B1FBF2F1FB
:1007D00001EB8101490000E0491E00910029FBD195
:1007E00080F83C40002078BD0023014000200140FB
:1007F0001800002040420F0070477047704770B5E6
:1008000004004FF0000503D0206C002610B107E073
:10081000012070BD666484F83C60204600F01AF840
:10082000206CC00610D4206C20F4885040F00200E8
:1008300020642046FFF768FD6664206C20F002000B
:1008400040F00100206400E0012584F83C60284667
:1008500070BD000070B506460068214986B0884228
:100860003BD120480025016841F480010160006807
:1008700000F4800005901B481430016841F4807139
:1008800001600068694600F48070059001200090C6
:100890000320CDE90105144800F088FA144C1348F0
:1008A000C4E900050015A560C4E90350400060617B
:1008B0008000A0614011E0614FF44030C4E90805B8
:1008C000A562E5622046256300F0CAF918B18F21C0
:1008D00008A001F0FBFAB463A66306B070BD000087
:1008E0000020014030380240000002401064024005
:1008F0006C0000202E2E2F5372632F6164632E63D1
:100900000000000018B50021009190F83C20012A59
:1009100007D0012280F83C2002689368DB0702D0F0
:1009200011E0022018BD936843F001039360204A50
:10093000204B1268B2FBF3F202EB420200E0521EBF
:100940000092002AFBD102689368DB072DD0036C6C
:1009500040F20164A34343F48073036453685B056E
:1009600005D5036C23F4005343F480530364036CF4
:10097000DB0404D5436C23F00603436400E04164C8
:1009800080F83C100C496FF022031360496800683E
:10099000C90602D00949884207D1816811F0405F39
:1009A00003D1816841F080418160002018BD0000C2
:1009B0001800002040420F000023014000200140A9
:1009C000F8B50E4600210446009190F83C0001283D
:1009D00007D0012084F83C0020688368DB0702D040
:1009E00011E00220F8BD836843F0010383602D48C5
:1009F0002D4B0068B0FBF3F000EB400000E0401E20
:100A000000900028FBD120688368DB0748D0236C66
:100A100040F20165AB4343F48073236440684005B2
:100A200005D5206C20F4005040F480502064206CE8
:100A3000C00404D5606C20F00600606400E06164CE
:100A400084F83C10A16B1A48184DC863A16B194873
:100A50000864A16B1848C86421686FF02200086020
:100A60002068416841F0806141602068816841F4FC
:100A7000807181602168134632464C31A06B00F0D2
:100A800059F96868C006206802D00C49884207D12D
:100A9000816811F0405F03D1816841F0804181603D
:100AA0000020F8BD1800002040420F000023014044
:100AB00085020008FD020008E7020008002001404E
:100AC0002DE9F84304464FF00009CDF80090634843
:100AD0004FF41651A56D0068B0FBF1F72E6894F83D
:100AE0005C10082000FA01F131420FD021680A6839
:100AF00052070BD50A6822F004020A6094F85C10D1
:100B00008840A860606D40F00100606594F85C105A
:100B10004FF0010808FA01F0304208D02168496915
:100B2000090604D5A860606D40F00200606594F885
:100B30005C1004208840304208D021680968890789
:100B400004D5A860606D40F00400606594F85C1006
:100B500010208840304218D021680968090714D550
:100B6000A86020680168490304D50068000308D51F
:100B7000A16C07E00168C90503D4016821F00801F0
:100B80000160216C09B12046884794F85C10202050
:100B90008840304231D021680968C9062DD5A86047
:100BA00094F8350005282068016806D0490347D528
:100BB000006800031DD4616C1CE021F01601016087
:100BC0002068416921F080014161206C08B9A06C66
:100BD00020B12068016821F00801016094F85C10E0
:100BE0003F208840A86084F8349084F83580216DD7
:100BF0001FE0E16B09B120468847606D00282BD0CB
:100C0000606DC00714D0052084F8350020680168A5
:100C100021F0010101600098401C0090B84203D807
:100C200020680068C007F6D184F8349084F83580D5
:100C3000E16C002910D001B02046BDE8F043084720
:100C40000168C905D5D4016821F01001016084F85C
:100C5000349084F83580CCE7BDE8F8831800002094
:100C60002DE9F041044600F07FF906465CB100250D
:100C700084F83450022084F835002068016821F09F
:100C8000010101600DE00120BDE8F08100F06CF988
:100C9000801B052805D920206065032084F83500D5
:100CA000F2E720680068C007F0D122681168204888
:100CB0000140D4E901031843D4E903363343184310
:100CC00063691843A3691843E3691843236A184307
:100CD0000843616A042903D1D4E90B13194308437B
:100CE000106020684069666A20F0070130460E43B4
:100CF000012704280CD1A06A0643E06A40B12046CF
:100D0000FFF7B8FB20B14020606584F83570BAE782
:100D1000206846612046FFF799FB94F85C203F214C
:100D200091408160656584F835700020ACE7000073
:100D30003F8010F02DE9F0410446866D90F83400B4
:100D4000002501280DD0012084F8340094F8357076
:100D50000020012F07D084F8340002252846BDE882
:100D6000F0810220FBE7022784F835706065204699
:100D7000FFF7AAFB94F85C103F208840B060206821
:100D8000016841F0160101602068416941F080016D
:100D90004161206C20B12068016841F008010160C8
:100DA0002068016841F001010160D7E72DE9F84FA3
:100DB000DFF87CB100224FF001084FF0030A4FF03A
:100DC0000F090BF1040E00BF0B6808FA02F4234070
:100DD000A3426ED14D68022D01D0122D0ED1D5083F
:100DE00000EB850CDCF820505607F70E09FA07F6E1
:100DF000B5430E69BE402E43CCF82060066855000E
:100E00000F790AFA05FC07F0030726EA0C06AF4043
:100E1000374307604E68012E05D0022E03D0112EF5
:100E200001D0122E0ED18668CF6826EA0C06AF409C
:100E3000374387604668A6430C79C4F30014944096
:100E400034434460C6688C6826EA0C06AC403443E0
:100E5000C4604C68E40065D5364C256845F480458F
:100E60002560246822F0030504F480440094324C89
:100E70002E19D6F8084895072F0F09FA07F5AC4345
:100E80002E4DA84201D1002524E02D4DA84201D1CC
:100E900001251FE02B4DA84201D102251AE02A4D61
:100EA000A84201D1032515E0284DA84202D104250E
:100EB00010E037E0264DA84201D105250AE0254D76
:100EC000A84201D1062505E0234DA84201D10725FE
:100ED00000E00825BD402543C6F80858DBF800406F
:100EE0005D464E689C43F60300D51C432C60DEF83B
:100EF000004075464E689C43B60300D51C432C60E9
:100F00000B4D08352C684E689C43F60200D51C43F7
:100F10002C60074D0C352C684E689C43B60200D5FA
:100F20001C432C60521C102AFFF44EAFBDE8F88F12
:100F3000003C0140443802400030014000000240C3
:100F40000004024000080240000C02400010024071
:100F50000014024000180240001C02400AB18161E6
:100F600070470904FBE700000148806870470000F3
:100F70000C000020024881680278114481607047AB
:100F80000C0000200B4810B5016841F400710160AD
:100F9000016841F480610160016841F48071016081
:100FA000032000F097F8002000F006F800F024F885
:100FB000002010BD003C024070B50D4D04464FF4BA
:100FC0007A712878B1FBF0F00A490968B1FBF0F0BA
:100FD00000F0FDFA48B9102C07D200222146501E1D
:100FE00000F058F800206C6070BD012070BD00005A
:100FF0000C000020180000201F4808B5016841F4CB
:1010000080410160006800F4804000901A48001F91
:10101000016841F080510160006800F0805000904C
:10102000032000F057F8002211466FF00B0000F08B
:1010300031F8002211466FF00A0000F02BF8002270
:1010400011466FF0090000F025F800221146501FEC
:1010500000F020F800221146101F00F01BF80022BB
:101060001146901E00F016F80022BDE80840114617
:10107000501E00F00FB800004438024000F01F027C
:10108000012191404009800000F1E020C0F80011EA
:1010900070470000F0B40E4B1B680C46C3F30223EC
:1010A000C3F10705042D00D90425191D072901D214
:1010B000002300E0DB1E012606FA05F1491E21404F
:1010C00099409E40761E16403143F0BC00F05CBD56
:1010D0000CED00E0064900F0070208684FF6FF0338
:1010E000184040EA0220034A10430860704700009D
:1010F0000CED00E00000FA052DE9F0470E46050072
:1011000065D0DFF81481D8F80000F7B200F00F00C6
:10111000B04207D288F80070D8F8000000F00F0045
:10112000B04254D128683D4C810712D5400703D501
:10113000206840F4E05020602878000703D520683C
:1011400040F4604020602068A96820F0F000084367
:1011500020602878C0072DD03049686808390128F8
:1011600012D0022813D0032811D00968890700295A
:101170002DDA216821F0030101432160FFF7F4FE1D
:10118000814641F2883A0EE009688903EFE7096871
:101190008901ECE7FFF7E8FEA0EB0901514502D910
:1011A0000320BDE8F0872068696800F00C00B0EB10
:1011B000810FEFD1D8F80010404601F00F01B14285
:1011C00007D90770006800F00F00B04201D001207D
:1011D000E7E72878400705D52068E96820F4E05063
:1011E000084320602878000706D52068296920F484
:1011F000604040EAC100206000F01CF82168084A05
:10120000C1F30311515CC840064908600020FFF794
:10121000D3FE0020C5E70000003C02400838024031
:10122000CC1F00081800002001480068704700002B
:1012300018000020154810B5006810F00C02144882
:1012400013D01449042A0FD0082A0ED10F4C241FA2
:101250002268236802F03F025B0207D52068C0F3D2
:101260008810A0FB010106E0084610BD2168C1F30B
:101270008811A1FB00010023FEF7A2FF2168C1F342
:101280000141491C4900B0FBF1F010BD0838024093
:101290000024F40040787D012DE9F84F050076D058
:1012A0002878DFF8F8B2BE4CC00749D0DBF8001050
:1012B0005846C1F38101012908D00068C0F38100BC
:1012C00002280AD1201D0068400206D5206880034C
:1012D00036D568680028E2D032E06868B0F5803F13
:1012E00010D0B0F5A02F206810D020F480302060FE
:1012F000206820F4802020606868A0B1FFF734FEE9
:1013000006460CE0206840F48030F4E740F480208A
:101310002060F7E7FFF728FE801B642873D8206859
:101320008003F7D50CE0FFF71FFE064605E000BF7F
:10133000FFF71AFE801B6428F0D820688003F7D4DA
:101340002878DFF8608280074FF000093ED5DBF88F
:101350000010584611F00C0F09D00068C0F381004E
:1013600002280BD18D48001F0068400206D4206877
:10137000800715D5E868012809D111E0E868B8B1FF
:101380000120C8F80000FFF7EFFD064605E002E186
:10139000FFF7EAFD801B0228C0D820688007F7D538
:1013A0002068296920F0F80040EAC10020600DE0C3
:1013B000C8F80090FFF7D8FD064604E0FFF7D4FD1B
:1013C000801B02281FD820688007F7D428780007E0
:1013D00022D5724E744869696C3671B10121016081
:1013E000FFF7C2FD074604E0FFF7BEFDC01B022861
:1013F00009D830688007F7D50EE0C0F80090FFF7F5
:10140000B3FD074605E083E0FFF7AEFDC01B0228F1
:101410007ED830688007F7D42878400768D5DFF891
:101420007CA100270AF1380ADAF80000C0000BD4CA
:10143000DAF8001041F08051CAF80010DAF8000024
:10144000012700F080500090584E3068C00510D43D
:10145000306840F480703060FFF786FD009005E052
:10146000FFF782FD0099401A022851D83068C00564
:10147000F6D54A4EA868683601280FD0052830688E
:1014800010D020F001003060306820F0040030609F
:10149000A868B8B1FFF768FD00900FE0306840F031
:1014A0000100F4E740F004003060F7E7FFF75CFD6F
:1014B0000099411A41F28830814264D8306880072F
:1014C000F4D50EE0FFF750FD009007E0FFF74CFD6C
:1014D0000099411A41F28830814254D8306880071F
:1014E000F4D42FB1DAF8001021F08051CAF80010BE
:1014F000A869C0B3DBF80010C1F3810102294AD00A
:101500000228484607D0C8F86000FFF72DFD00E02C
:1015100039E005463AE04746C8F86000FFF724FD89
:10152000064604E0FFF720FD801B02282BD8206828
:101530008001F7D4D5E907010843A96A1C4A490884
:1015400002EB01416A6A41EA8211084395F82C10C6
:1015500040EA01611148001F016001203866FFF771
:1015600003FD054605E014E0FFF7FEFC401B0228E2
:1015700009D820688001F7D50BE000BFFFF7F4FC25
:10158000401B022802D90320BDE8F88F20688001A3
:10159000F4D40020F8E70120F6E700000838024004
:1015A0000038024000004742800E47420070004071
:1015B0000000FFFF4FF0E0210428086903D020F06D
:1015C00004000861704740F00400FAE7704710B566
:1015D000401EB0F1807F01D3012010BD4FF0E02408
:1015E00060610F21601700F0CFFA0020A061072092
:1015F0002061002010BD10B5FFF7E8FF10BD704757
:10160000704730B590F83820012A20D0012280F8A8
:101610003820022380F8393003685C6824F07004B5
:101620005C6003685C680D682C435C6003689C68C0
:1016300024F080049C6003689C6849680C439C60AB
:1016400080F83920002180F83810084630BD02208B
:1016500030BD10B5040003D094F8390010B107E094
:10166000012010BD002084F83800204600F00CF85E
:10167000022084F83900211D206800F031FB012090
:1016800084F83900002010BD08B50068B0F1804F23
:1016900012D10A48016841F001010160006800228E
:1016A00000F00100009011461C20FFF7F3FCBDE89C
:1016B00008401C20FFF7E2BC08BD00004038024093
:1016C0000168CA6842F00102CA600068016841F01E
:1016D000010101600020704770B5044690F83800A1
:1016E000012817D0012584F83850022084F83900E9
:1016F0002068826822F0770222F47F4282600868C4
:10170000502837D00DDC202859D005DC88B31028AC
:1017100041D151E0022070BD302853D040283AD149
:101720003FE060282ED070280BD0B0F5805F03D04A
:10173000B0F5005F2FD110E02068816821F007012B
:1017400015E0CB68D1E90121206800F029FB216870
:10175000886840F0770088601DE0CB68D1E90121FE
:10176000206800F01DFB2068816841F480418160A1
:1017700011E01EE0CA684968206800F023FB502190
:10178000206806E0CA684968206800F02CFB6021E8
:10179000206800F00FFB84F83950002084F83800EE
:1017A00070BDCA684968206800F00CFB40212068C1
:1017B000EFE700212068ECE710212068E9E720210D
:1017C0002068E6E730212068E3E7704770B50446FB
:1017D000006801694FF00005C943890715D4C16845
:1017E000C943890711D4E91E0161012020762068D0
:1017F00080698007204602D0FFF7E7FF04E000F091
:1018000098F8204600F096F8257620680169C943CB
:10181000490717D4C168C943490713D46FF00401BD
:101820000161022020762068806910F4407F204604
:1018300002D0FFF7CAFF04E000F07BF8204600F07A
:1018400079F8257620680169C943090716D4C1686B
:10185000C943090712D46FF0080101610420207602
:101860002068C0698007204602D0FFF7AEFF04E081
:1018700000F05FF8204600F05DF8257620680169E9
:10188000C943C90617D4C168C943C90613D46FF048
:1018900010010161082020762068C06910F4407FA3
:1018A000204602D0FFF791FF04E000F042F8204606
:1018B00000F040F8257620680169C943C90708D1BE
:1018C000C168C943C90704D1891E0161204600F0DF
:1018D00032F820680169C943090609D4C168C943BF
:1018E000090605D46FF0800101612046FFF787FEED
:1018F00020680169C943490609D4C168C94349063A
:1019000005D46FF040010161204600F015F8206811
:101910000169C94389060BD4C168C943890607D444
:101920006FF0200101612046BDE87040FFF768BEFE
:1019300070BD704770477047704710B5012000F0C8
:1019400065FA022000F062FA382000F05FFA0E20FB
:1019500000F05CFA062000F059FA40F24E2000F048
:1019600055FA4FF4137000F051FA40F25F2000F086
:101970004DFA40F2532000F049FA40F24D2000F0B9
:1019800045FABDE810404FF4087000F03FBA00007F
:1019900030B51E488DB01C490024C0E90014846095
:1019A000046184611A490462C0E90A140125C56111
:1019B00005634561C460FEF722FF18B14B2115A0F5
:1019C00000F084FACDE9094509A910480B94FEF707
:1019D0006DFE18B155210FA000F078FACDE9004551
:1019E00010480294CDE90704CDE9045406946946F1
:1019F00006480394FEF77CFD002803D0652105A06E
:101A000000F064FA0DB030BD002001402400002039
:101A10000100000F2E2E2F5372632F6164632E631B
:101A20000000000001000F00094808B5016841F4FA
:101A3000800101600068002200F4800000901146DF
:101A40003820FFF727FBBDE808403820FFF716BB1A
:101A5000303802402DE9F0472B4886B00024016859
:101A600041F001010160016801F001010591016887
:101A700041F010010160016801F010010591016859
:101A800041F002010160016801F002010591016865
:101A900041F0080101600068DFF8708000F0080084
:101AA0004FF42A460590002231464046FFF756FA89
:101AB000DFF85C904FF42847002239464846FFF78C
:101AC0004DFADFF850A0002231465046FFF746FAA3
:101AD00001250096CDE90154694640460394FFF77D
:101AE00065F90097CDE90154694648460394FFF72C
:101AF0005DF90096CDE90154694650460394FFF71D
:101B000055F906B0BDE8F0873038024000100240B9
:101B100000040240000C024010B5164886B04FF099
:101B20008041016010210024C0E901146421C0E952
:101B30000314FFF78EFD18B13E210FA000F0C6F987
:101B40004FF48050009069460A48FFF7C5FD18B170
:101B5000442109A000F0BAF9049404A905480594A9
:101B6000FFF74FFD002803D04B2103A000F0AEF992
:101B700006B010BDCC0000202E2E2F5372632F74A0
:101B8000696D2E63000000000907090E002806DABF
:101B900000F00F0000F1E02080F8141D704700F104
:101BA000E02080F80014704710B5FFF7E3F9BDE8B6
:101BB0001040FFF720BD000010B5204892B000246F
:101BC000016841F080510160006800F08050119080
:101BD0001B48016841F4804101600068069400F4EC
:101BE000804011900220009001200390102004906A
:101BF0006846FFF751FB00B1FEE70F20CDE90C046A
:101C00004FF480500E94CDE90F4000210CA8FFF74F
:101C100073FA00B1FEE7FFF707FB4FF47A71B0FBF0
:101C2000F1F0FFF7D4FC0420FFF7C4FC00221146BA
:101C3000501EFFF72FFA12B010BD000040380240CE
:101C4000007000401048016841F4700101600F48C5
:101C5000016841F0010101600C4A00210832116065
:101C600002680B4B1A400260031D0A4A1A600268A0
:101C700022F48022026005480C30016002495806B7
:101C8000803908607047000088ED00E000380240AD
:101C9000FFFFF6FE103000240D4810B50168012248
:101CA000491C0C4B0160B1F57A7F03D0B1F5FA6F96
:101CB00002D004E01A7002E01A70002101600648A8
:101CC000FFF784FDBDE810400448FEF71BBE00008E
:101CD0000800002000000020CC000020240000208C
:101CE000F0B50268234B244D244E254F254C4FF070
:101CF000804C984209D0604507D0A84205D0B04238
:101D000003D0B84201D0A04204D122F0700E4A683C
:101D100042EA0E0298421BD0604519D0A84217D063
:101D2000B04215D0B84213D0A04211D0164DA842EF
:101D30000ED0164DA8420BD0154DA84208D0154D17
:101D4000A84205D0144DA84202D0144DA84203D198
:101D500022F44075CA682A4302608A68C2620A682F
:101D60008262984201D0A04201D109690163012138
:101D70004161F0BD00000140000400400008004047
:101D8000000C0040000401400040014000440140BC
:101D90000048014000180040001C004000200040A6
:101DA00010B5846842EA032224F47F440A432243A4
:101DB000826010BD826822F070020A4342F007017F
:101DC0008160704710B5036A046A24F0010404625C
:101DD000846924F0F00444EA021423F00A020A435E
:101DE0008461026210BD10B5036A23F01003036220
:101DF0008369046A23F4704343EA023224F0A003A7
:101E000043EA01118261016210BD00002DE9F04733
:101E1000DFF8ACA00446C0F340224FF40076314610
:101E20005046FFF79BF84FF40068C4F30022414688
:101E30005046FFF793F8234F4FF40049C4F3C01204
:101E400049463846FFF78AF83501C4F3801229461F
:101E50003846FFF783F8C4F3401241463846FFF78F
:101E60007DF8C4F3001231463846FFF777F8164E76
:101E7000C4F3C00249463046FFF770F8C4F380024D
:101E800029463046FFF76AF8C4F34002414630461F
:101E9000FFF764F804F0010249465046FFF75EF888
:101EA000012229465046FFF759F86420FEF7BEFA92
:101EB00029465046BDE8F0470022FFF74FB8000022
:101EC00000100240000C024000040240FEE702E065
:101ED00008C8121F08C1002AFAD1704770470020B5
:101EE00001E001C1121F002AFBD17047FFF74AF839
:101EF000FFF762FEFFF7AEFDFFF796FDFFF748FD27
:101F0000FFF70AFE4FF47A6000F026F80F4D686084
:101F1000FFF713FD0E48FFF7D3FB4FF47A74224608
:101F20000C486968FEF74CFD287826460128FBD14D
:101F30000748FFF7C5FB0020401C80B2A042FBDB36
:101F40000348FFF7BDFB96FBF4F0EDE7000000202F
:101F5000CC00002024000020F0B50B30154D20F0FF
:101F600007010024144A0FE003688B420BD38B4215
:101F700005D95E1A43184768C3E9006700E0436863
:101F8000136002C004E0021D10680028ECD1204656
:101F9000002802D1286808B10020F0BD064A074891
:101FA0001060074A121A22F00702C0E9002401203B
:101FB0002860D7E7200000201C0000200C01002032
:101FC000080300200006101600061016000000008E
:101FD000000000000102030406070809FC1F0008B6
:101FE0000000002024000000CE1E00082020000871
:101FF00024000020E4060000DE1E000800000000AF
:1020000000000000000000000100000010000000BF
:10201000000000000024F4000000000000000000A8
:040000050800018965
:00000001FF
